:100000000C9434000C9451000C9451000C94510049
:100010000C9451000C9451000C9451000C9451001C
:100020000C9451000C9451000C9451000C9451000C
:100030000C9451000C9451000C9451000C945100FC
:100040000C9451000C9451000C9451000C945100EC
:100050000C9451000C9451000C9451000C945100DC
:100060000C9451000C94510011241FBECFEFD8E026
:10007000DEBFCDBF11E0A0E0B1E0E8E3F9E002C0EF
:1000800005900D92AA32B107D9F721E0AAE2B1E0BA
:1000900001C01D92A033B207E1F70E94FE010C944B
:1000A0009A040C9400009091C00095FFFCCF8093BF
:1000B000C60008958091C00087FFFCCF8091C600E4
:1000C0000895229A2A9A08952F923F924F925F9212
:1000D0006F927F928F929F92AF92BF92CF92DF9258
:1000E000EF92FF920F931F93CF93DF93CDB7DEB7BD
:1000F0002A970FB6F894DEBF0FBECDBF6B017C010F
:1001000049015A0160E271EA87E090E0A701960197
:100110000E94270269017A0129013A018BE0481AFD
:10012000510861087108A4EFB1E0A50194010E9493
:100130004902A70196010E94270249015A01232B77
:10014000242B252B09F4E2C0C301B2010E947603DF
:100150006D837E838F8398872BEA3AEA4AE250E4E4
:100160000E942D046B017C012D813E814F815885B9
:10017000CA01B9010E9464022B013C011401A12CA7
:10018000B12C08EC10E0BA86A9862A9A20E030E06B
:1001900040E85FE3C701B6010E94D00287FDF3C0CB
:1001A00020E03FEF4FE757E4C301B2010E9428046B
:1001B00018160CF0D6C020E030E04AE754E46D8118
:1001C0007E818F8198850E94D50269837A838B8393
:1001D0009C8320E030E04AEF54E40E942D044B0160
:1001E0005C0120E030E040E85FE30E94D00287FD40
:1001F000EAC020E03FEF4FE757E4C501B4010E9499
:10020000280418160CF0CDC020E030E040E251E4A4
:1002100069817A818B819C810E942D040E94470311
:100220006115710509F4D5C029853A85C801019782
:10023000F1F761507109D1F73A87298760E06A9533
:10024000F1F72A9820E030E040E85FE3C701B6010B
:100250000E94D00287FD99C020E03FEF4FE757E4AE
:10026000C301B2010E94280418160CF068C020E0F7
:1002700030E04AE754E46D817E818F8198850E9449
:10028000D50269837A838B839C8320E030E04AEF38
:1002900054E40E942D044B015C0120E030E040E872
:1002A0005FE30E94D00287FD91C020E03FEF4FE75F
:1002B00057E4C501B4010E94280418160CF07AC056
:1002C00020E030E040E251E469817A818B819C81B9
:1002D0000E942D040E9447036115710509F47BC03B
:1002E00029853A85C8010197F1F761507109D1F765
:1002F0003A87298760E06A95F1F7E985FA853196B2
:10030000FA87E987E215F30509F03FCF2A960FB681
:10031000F894DEBF0FBECDBFDF91CF911F910F913B
:10032000FF90EF90DF90CF90BF90AF909F908F9015
:100330007F906F905F904F903F902F90089520E0B6
:1003400030E04FE753E4C701B6010E9428041816B5
:10035000F4F4C301B2010E944703CB010197F1F706
:10036000CCCF20E030E04FE753E4C701B6010E9454
:10037000280418168CF4C301B2010E944703CB0174
:100380000197F1F75ECF61E05ACF61E0B4CFC701CA
:10039000B6010E944703AFCFC701B6010E944703D1
:1003A0004ECFC501B4010E944703CB010197F1F77D
:1003B00060E045CFC501B4010E944703CB0101971E
:1003C000F1F760E098CF61E070E0EFCF61E070E0BE
:1003D000F5CF60E034CF60E08ECF1092C50088E0AA
:1003E0008093C400E0ECF0E080818260808386E04E
:1003F0008093C20088E18093C10008951092C500E7
:1004000088E08093C4008091C00082608093C00027
:1004100086E08093C20088E18093C100229A2A9AE4
:100420008CE191E090932D0180932C018EE091E07E
:1004300090932B0180932A0128EE33E040E050E0B6
:1004400068EB71E080E090E00E946400F5CFA1E2EB
:100450001A2EAA1BBB1BFD010DC0AA1FBB1FEE1F3E
:10046000FF1FA217B307E407F50720F0A21BB30B89
:10047000E40BF50B661F771F881F991F1A9469F705
:1004800060957095809590959B01AC01BD01CF0161
:1004900008950E945402A59F900DB49F900DA49FB3
:1004A000800D911D11240895A29FB001B39FC0013A
:1004B000A39F700D811D1124911DB29F700D811D90
:1004C0001124911D08955058BB27AA270E947B0232
:1004D0000C94EE030E94E00338F00E94E70320F042
:1004E00039F49F3F19F426F40C94DD030EF4E095E3
:1004F000E7FB0C94D703E92F0E94FF0358F3BA17C8
:10050000620773078407950720F079F4A6F50C9429
:1005100021040EF4E0950B2EBA2FA02D0B01B9018A
:1005200090010C01CA01A0011124FF27591B99F069
:10053000593F50F4503E68F11A16F040A22F232F75
:10054000342F4427585FF3CF469537952795A795C5
:10055000F0405395C9F77EF41F16BA0B620B730B6C
:10056000840BBAF09150A1F0FF0FBB1F661F771FDD
:10057000881FC2F70EC0BA0F621F731F841F48F492
:10058000879577956795B795F7959E3F08F0B0CF1B
:100590009395880F08F09927EE0F97958795089502
:1005A0000E94B30308F481E008950E94E9020C94CC
:1005B000EE030E94E70358F00E94E00340F029F4A4
:1005C0005F3F29F00C94D70351110C9422040C9432
:1005D000DD030E94FF0368F39923B1F3552391F3E0
:1005E000951B550BBB27AA2762177307840738F0A2
:1005F0009F5F5F4F220F331F441FAA1FA9F335D0FF
:100600000E2E3AF0E0E832D091505040E695001CB2
:10061000CAF72BD0FE2F29D0660F771F881FBB1F6C
:10062000261737074807AB07B0E809F0BB0B802D4A
:10063000BF01FF2793585F4F3AF09E3F510578F076
:100640000C94D7030C9422045F3FE4F3983ED4F358
:10065000869577956795B795F7959F5FC9F7880F4A
:10066000911D9695879597F90895E1E0660F771F9C
:10067000881FBB1F621773078407BA0720F0621B2D
:10068000730B840BBA0BEE1F88F7E09508950E9458
:10069000070488F09F5798F0B92F9927B751B0F009
:1006A000E1F0660F771F881F991F1AF0BA95C9F7F6
:1006B00014C0B13091F00E942104B1E008950C946F
:1006C0002104672F782F8827B85F39F0B93FCCF322
:1006D000869577956795B395D9F73EF49095809573
:1006E000709561957F4F8F4F9F4F0895E89409C093
:1006F00097FB3EF490958095709561957F4F8F4F55
:100700009F4F9923A9F0F92F96E9BB279395F6956A
:10071000879577956795B795F111F8CFFAF4BB0FE8
:1007200011F460FF1BC06F5F7F4F8F4F9F4F16C04C
:10073000882311F096E911C0772321F09EE8872FD6
:10074000762F05C0662371F096E8862F70E060E092
:100750002AF09A95660F771F881FDAF7880F96950B
:10076000879597F90895990F0008550FAA0BE0E8AF
:10077000FEEF16161706E807F907C0F01216130663
:10078000E407F50798F0621B730B840B950B39F4A3
:100790000A2661F0232B242B252B21F408950A2609
:1007A00009F4A140A6958FEF811D811D089597F949
:1007B0009F6780E870E060E008959FEF80EC089507
:1007C00000240A9416161706180609060895002430
:1007D0000A9412161306140605060895092E0394AA
:1007E000000C11F4882352F0BB0F40F4BF2B11F41E
:1007F00060FF04C06F5F7F4F8F4F9F4F089557FD7D
:100800009058440F551F59F05F3F71F04795880F7E
:1008100097FB991F61F09F3F79F087950895121615
:1008200013061406551FF2CF4695F1DF08C01616C1
:1008300017061806991FF1CF869571056105089472
:100840000895E894BB2766277727CB0197F9089589
:100850000E94B30308F48FEF08950E9440040C94A3
:10086000EE030E94E00338F00E94E70320F0952396
:1008700011F00C94D7030C94DD0311240C94220482
:100880000E94FF0370F3959FC1F3950F50E0551F31
:10089000629FF001729FBB27F00DB11D639FAA27D5
:1008A000F00DB11DAA1F649F6627B00DA11D661F24
:1008B000829F2227B00DA11D621F739FB00DA11D45
:1008C000621F839FA00D611D221F749F3327A00DFF
:1008D000611D231F849F600D211D822F762F6A2F9B
:1008E00011249F5750409AF0F1F088234AF0EE0F00
:1008F000FF1FBB1F661F771F881F91505040A9F72D
:100900009E3F510580F00C94D7030C9422045F3F66
:10091000E4F3983ED4F3869577956795B795F79568
:10092000E7959F5FC1F7FE2B880F911D96958795E0
:0809300097F90895F894FFCF38
:10093800000000030000000053005A0000000000FF
:1009480000010000000000005A0000000000000242
:0A0958000000000053000000000042
:00000001FF
